:100000000C942A000C9447000C9447000C94470071
:100010000C9447000C9447000C9447000C94470044
:100020000C9447000C94BE040C948A040C94630452
:100030000C9447000C9447000C9447000C94470024
:100040000C9447000C9447000C9447000C94470014
:100050000C94470011241FBECFE5D8E0DEBFCDBF12
:1000600010E0A0E6B0E0E2E1FAE002C005900D92F7
:10007000AA36B107D9F720E0AAE6B0E001C01D9288
:10008000A837B207E1F70E94E1020C9407050C942F
:10009000000080EF8ABB8FE08BBB08958BB38F7E0F
:1000A0008BBB8BB380628BBB8BB380648BBB8BB3FE
:1000B00080688BBBC89B5CC0C99B5CC0CA9B5CC092
:1000C000CB9B5CC08FE99FE00197F1F700C0000077
:1000D0008BB380618BBB8BB38F7D8BBB8BB3806409
:1000E0008BBB8BB380688BBBC89B4AC0C99B4AC083
:1000F000CA9B4AC0CB9B4AC08FE99FE00197F1F7AA
:1001000000C000008BB380618BBB8BB380628BBB64
:100110008BB38F7B8BBB8BB380688BBBC89B38C08A
:10012000C99B38C0CA9B38C0CB9B38C08FE99FE0C1
:100130000197F1F700C000008BB380618BBB8BB3DC
:1001400080628BBB8BB380648BBB8BB38F778BBB95
:10015000C89B26C0C99B26C0CA9B26C0CB9B26C075
:100160008FE99FE00197F1F700C0000080E008955B
:1001700087E3089584E3089581E3089583E608956D
:1001800088E3089585E3089582E3089580E3089560
:1001900089E3089586E3089583E308958DE3089540
:1001A0008FE208958AE208958DE208958BE2089522
:1001B00098B3977F98BB882324F498B3906898BB32
:1001C00003C098B39F7798BB86FF04C098B3906430
:1001D00098BB03C098B39F7B98BB85FF04C098B3BE
:1001E000906298BB03C098B39F7D98BB84FF04C006
:1001F00098B3906198BB03C098B39F7E98BB98B3A7
:10020000946098BBEFE9FFE03197F1F700C0000080
:1002100098B39B7F98BBEFE9FFE03197F1F700C0FF
:10022000000083FF04C098B3906898BB03C098B3E4
:100230009F7798BB82FF04C098B3906498BB03C0BB
:1002400098B39F7B98BB81FF04C098B3906298BB22
:1002500003C098B39F7D98BB80FF04C088B38061C2
:1002600088BB03C088B38F7E88BB88B3846088BB9B
:100270008FE99FE00197F1F700C0000088B38B7F02
:1002800088BBEFE9FFE03197F1F700C00000089567
:1002900087B38C6F87BB83E00E94D8008FE79EE313
:1002A0000197F1F700C0000083E00E94D8008FE7BB
:1002B0009EE30197F1F700C0000083E00E94D800A0
:1002C0008FE79EE30197F1F700C0000082E00E94F3
:1002D000D80088E20E94D80088E00E94D80081E01F
:1002E0000E94D80086E00E94D8008CE00E94D800CE
:1002F0009FEF29EF80E0915020408040E1F700C05F
:100300000000089598B3986098BB882324F498B3AC
:10031000906898BB03C098B39F7798BB86FF04C0D2
:1003200098B3906498BB03C098B39F7B98BB85FF3C
:1003300004C098B3906298BB03C098B39F7D98BBEC
:1003400084FF04C098B3906198BB03C098B39F7EAC
:1003500098BB98B3946098BBEFE9FFE03197F1F751
:1003600000C0000098B39B7F98BBEFE9FFE0319796
:10037000F1F700C0000083FF04C098B3906898BBF9
:1003800003C098B39F7798BB82FF04C098B3906472
:1003900098BB03C098B39F7B98BB81FF04C098B300
:1003A000906298BB03C098B39F7D98BB80FF04C048
:1003B00088B3806188BB03C088B38F7E88BB88B355
:1003C000846088BB8FE99FE00197F1F700C00000CF
:1003D00088B38B7F88BBEFE9FFE03197F1F700C06E
:1003E000000008951F93CF93DF93CDB7DEB72A9710
:1003F0000FB6F894DEBF0FBECDBF61157105810544
:100400009105D1F480E30E9482012CC02AE030E003
:1004100040E050E00E94E504E1E0F0E0EC0FFD1F59
:10042000E10FF11D17FDFA95605D6083622F732F58
:10043000842F952F1F5F01C010E0611571058105A4
:10044000910521F711500CC0E1E0F0E0EC0FFD1F29
:10045000E10FF11D17FDFA9580810E948201115074
:10046000112394F72A960FB6F894DEBF0FBECDBFC6
:10047000DF91CF911F91089580916B00811122C06F
:1004800080916A008F5F80936A008430D9F4109263
:100490006A0080916F008F5F80936F008C3339F416
:1004A000809171008F5F8093710010926F00809136
:1004B00071008C3339F4809170008F5F80937000ED
:1004C00010927100089580916D00813091F48091B7
:1004D0006F009DEC899F912D112496959695969588
:1004E000990F292F220F220F920F61E0891B0E9482
:1004F000210480916D00823061F480916F009DEC49
:10050000899F812D112462E08695869586950E94AB
:10051000210480916D00833091F4809171009DECF5
:10052000899F912D1124969596959695990F292F2F
:10053000220F220F920F63E0891B0E9421048091F9
:100540006D00843061F4809171009DEC899F812D54
:10055000112464E08695869586950E9421048091F9
:100560006D00853091F4809170009DEC899F912DF4
:100570001124969596959695990F292F220F220F63
:10058000920F65E0891B0E94210480916D008630E6
:1005900061F4809170009DEC899F812D112466E0AB
:1005A0008695869586950E94210480916D008730FE
:1005B00011F410926D0080916D008F5F80936D003B
:1005C00008950E941A048CE392E090937700809340
:1005D00076000E94B10483E692E0909375008093C8
:1005E000740080E10E944F040E9449000E9448016B
:1005F00080916B00811134C080E80E94D800609126
:10060000700070E080E090E00E94F2018AE30E94B6
:1006100082016091710070E080E090E00E94F20140
:100620008AE30E94820160916F0070E080E090E0B8
:100630000E94F2010E944E0080936C008336C1F646
:100640008FE99FE00197F1F700C000000E944E0083
:1006500090916C008917D1F381E080936B00C8CF33
:100660000E944E0080936E000E944E0090916E009A
:100670008917D1F3992309F4BBCF9B3261F50E940E
:100680004E0090916E008917D1F3809171008F5FB9
:100690008093710010926F0080E80E94D8006091F2
:1006A000700070E080E090E00E94F2018AE30E9416
:1006B00082016091710070E080E090E00E94F201A0
:1006C0008AE30E94820160916F0070E080E090E018
:1006D0000E94F2018DCF9D3261F50E944E009091F3
:1006E0006E008917D1F38091710081508093710061
:1006F00010926F0080E80E94D8006091700070E056
:1007000080E090E00E94F2018AE30E948201609101
:10071000710070E080E090E00E94F2018AE30E94A4
:10072000820160916F0070E080E090E00E94F20131
:100730005FCF933609F05CCF77C00E944E00809364
:100740006E00882309F470C00E944E0080936E00F2
:100750000E944E0090916E008917D1F39B3261F593
:100760000E944E0090916E008917D1F38091700025
:100770008F5F8093700010926F0080E80E94D80015
:100780006091700070E080E090E00E94F2018AE3E6
:100790000E9482016091710070E080E090E00E9410
:1007A000F2018AE30E94820160916F0070E080E0B4
:1007B00090E00E94F20138C09D3261F50E944E0027
:1007C00090916E008917D1F38091700081508093D1
:1007D000700010926F0080E80E94D8006091700055
:1007E00070E080E090E00E94F2018AE30E948201C2
:1007F0006091710070E080E090E00E94F2018AE375
:100800000E94820160916F0070E080E090E00E94A1
:10081000F2010AC0933641F40E944E0090916E009E
:100820008917D1F310926B0080916B00813009F42D
:1008300084CFDECE84B38F6784BB81B38FEF81BB5F
:1008400008959FEF92BB6330A1F028F4613049F026
:10085000623059F01DC06530A1F078F06630A9F023
:1008600017C092B39D7F92BB13C092B39B7F92BB84
:100870000FC092B3977F92BB0BC092B39F7E92BB87
:1008800007C092B39F7D92BB03C092B39F7B92BB84
:10089000E82FF0E0E05AFF4F808185BB089593B7C1
:1008A000916093BF93B7946093BF93B7906893BFE1
:1008B00093B7986093BF8CBF89B7826089BF8FB7A9
:1008C00080688FBF08951F920F920FB60F92112468
:1008D0002F933F934F935F936F937F938F939F9348
:1008E000AF93BF93EF93FF93E0917200F091730089
:1008F0000995FF91EF91BF91AF919F918F917F915A
:100900006F915F914F913F912F910F900FBE0F907C
:100910001F9018951F920F920FB60F9211242F93CC
:100920003F934F935F936F937F938F939F93AF9377
:10093000BF93EF93FF93E0917400F09175000995D8
:10094000FF91EF91BF91AF919F918F917F916F91A7
:100950005F914F913F912F910F900FBE0F901F907D
:1009600018958EB581608EBD8EB582608EBD89B7BB
:10097000846089BF8FB780688FBF08951F920F92E0
:100980000FB60F9211242F933F934F935F936F9362
:100990007F938F939F93AF93BF93EF93FF93E091D8
:1009A0007600F09177000995FF91EF91BF91AF919B
:1009B0009F918F917F916F915F914F913F912F9177
:1009C0000F900FBE0F901F901895A1E21A2EAA1B30
:1009D000BB1BFD010DC0AA1FBB1FEE1FFF1FA217EF
:1009E000B307E407F50720F0A21BB30BE40BF50BEC
:1009F000661F771F881F991F1A9469F76095709575
:100A0000809590959B01AC01BD01CF010895F894AC
:020A1000FFCF16
:0A0A12003F065B4F666D7D077F6FA6
:00000001FF
